:1000000019C033C032C031C030C02FC02EC02DC087
:100010002CC02BC02AC029C028C027C026C025C09C
:1000200024C023C022C021C020C01FC01EC01DC0CC
:100030001CC01BC011241FBECFEFD4E0DEBFCDBF5C
:1000400011E0A0E0B1E0E4E0F9E002C005900D921B
:10005000A430B107D9F721E0A4E0B1E001C01D92BE
:10006000A334B207E1F7CAD3D5C3CACF80917A00CF
:1000700086FDFCCF209115018091780030917900A8
:10008000E22FF0E0EE0FFF1FEC5FFE4F90E0932BAE
:100090009183808381E0820F8093150190911401F8
:1000A000891710F0109215018091150187709091B9
:1000B0000001892B80937C0080917A00806480937A
:1000C0007A00089554985C9A10923C0157985F9A70
:1000D00010923D0108953B983A98439A429A1092A3
:1000E0003B0110923A010895539A509A569A559AA4
:1000F0000895EAE7F0E080818760808380818068EE
:100100008083109215018091000180937C00808192
:100110008064808382E08093140180E680930001F4
:1001200081E080934201089580E090E075D380954E
:1001300080FD06C081FF06C091E09093010102C0DE
:100140001092010182FD06C083FF06C081E080930A
:1001500002010895109202010895811105C086B12F
:1001600083FB882780F904C086B182FB882780F949
:1001700091E089270895E6E2F1E0808191819093F2
:1001800025018093240180918400909185009183C2
:100190008083089590914201911130C0E1E0F0E038
:1001A000882311F0E0E0F0E0EE0FFF1FEC5FFE4F60
:1001B000418150E090E0880F991FFC01E25CFE4F06
:1001C00020813181BA01621B730B9B0177FF03C051
:1001D0003195219531092530310584F02AEF30E041
:1001E000241B350BFC01E25CFE4F37FD03C031835D
:1001F000208302C01182108281E0089580E008957A
:10020000CF93DF93282F30E0E901CC0FDD1FFE01F3
:10021000E05EFE4F6081718177FF34C080912601DE
:1002200090912701009771F140912401509125018F
:100230004115510539F1E0918400F0918500E81BEA
:10024000F90B841B950B719561957109FBD2CF0158
:10025000F9D2F901E25EFE4F0D9798F48081811189
:1002600011C08091840090918500C65DDE4F998316
:100270008883D901A85DBE4F82E08C9381E08083A2
:1002800001C01082DF91CF910895CF93DF9390E06A
:100290009C01220F331FF901E05EFE4F4081518126
:1002A000FC01141615060CF5E45EFE4FA0811A162B
:1002B00074F06091840070918500E901C65DDE4FA5
:1002C00079836883EC01C85DDE4F22E028834150CA
:1002D00051098A2F992787FD90958417950714F067
:1002E000108210C0AF5FA0830DC0E85DFE4F41E0FB
:1002F00040838091840090918500F901E65DFE4F76
:1003000091838083DF91CF91089590E0FC01EA5EB4
:10031000FE4F2081222319F0213099F030C0DC01FA
:10032000A85DBE4F41E04C93209184003091850040
:10033000DC01AA0FBB1FA65DBE4F2D933C934083EB
:1003400008959C01220F331FD901A85EBE4F4D9125
:100350005C91DC01A85DBE4F4333510564F482E03B
:100360008C938091840090918500D901A65DBE4F49
:100370008D939C9304C01C9282E080830895108228
:100380000895A0E0B0E0E6ECF1E08DC200918400B9
:1003900010918500E0902601F0902701282F30E091
:1003A000F901EA5EFE4F80818230B4F1E901CC0FA1
:1003B000DD1FDE01A85EBE4F6D917C916333710538
:1003C0005CF10E191F098091240190912501E81A12
:1003D000F90A84E18E9D60018F9DD00C112488EE76
:1003E00093E044D2C6012ED26E197F090617170773
:1003F00098F0645F7F4F6017710770F0D901A85DB6
:10040000BE4F82E08C938091840090918500C65D00
:10041000DE4F998388831082CDB7DEB7E8E05FC2F4
:100420001F93CF93DF93182FC82FD0E0FE01EF5F0B
:10043000FE4F8081882329F0813029F4812FA1DFAC
:1004400002C0812FDDDEFE01E85DFE4F8081882342
:1004500009F1112329F0113029F45E9A5D9A02C046
:100460005B9A589A2081CE01880F991FCE5CDE4F8F
:10047000DC01A25DBE4F223030F420E031E02D934C
:100480003C9381E005C020E830E02D933C9382E06E
:10049000888309C0112329F0113029F45E985D98F2
:1004A00002C05B9858981082DF91CF911F910895F8
:1004B00090E0FC01EF5FFE4F2081222319F02130F4
:1004C00029F00895FC01E45EFE4F03C0FC01EA5EE2
:1004D000FE4F1082089580910101882321F0813020
:1004E00021F060E003C061E001C062E080910201A0
:1004F000882321F0813019F4686001C06460609540
:1005000080E090E091D10895E82FF0E0EF5FFE4F9A
:100510009081992321F0913021F4108202C091E062
:100520009083C6DF0895A0E0B0E0E8E9F2E0BBC147
:10053000CAE3EC2EC1E0FC2EC8E3D1E004E311E0F5
:10054000D12C8D2D0ADEC82EF701808181110BC0C0
:10055000CC20E9F02091840030918500F8013183AE
:100560002083188214C08881811111C020918400D9
:1005700030918500F80140815181241B350B2F39C2
:10058000344298F081E088838D2DBEDFA4DFF7012F
:10059000C1927F01D39421960E5F1F4FF2E0DF12CC
:1005A000D0CFCDB7DEB7E8E09AC1CC2081F38D2D56
:1005B0007FDFEDCF59980895299808955A980895A6
:1005C00028980895519A529A219A209AF3DFF4DFDD
:1005D000F5DFF6DF10923301109232010895249A6C
:1005E0002C9870DD78DD80DDEDDF83DD9DDD109200
:1005F000800085E0809381000895A82FB0E0FD0180
:10060000EE0FFF1FE25DFE4F20813181AE5CBE4FD9
:100610002115310539F02150310931832083232BF5
:1006200009F41C929C91913069F018F09230A9F075
:100630000895882319F0813019F00895BBDF13C0A5
:10064000BBDF14C0882319F0813021F00895B2DF98
:100650005A9A0895B1DF289A0895882319F08130B5
:1006600021F00895599AAADF0895299AA9DF0895DB
:10067000A0E0B0E0EDE3F3E013C18091840090913D
:10068000850020912A0130912B018217930708F4ED
:1006900094C0809184009091850020912C0130912C
:1006A0002D018217930708F488C08091420184309D
:1006B00021F4DCDC1092420103C08F5F8093420181
:1006C00032DF90913D0189B18095881F8827881F6E
:1006D00080933D01882319F0992309F48BC0A12C44
:1006E00090903C0189B191E0829581708927809337
:1006F0003C01882311F0992601C0912C21E0C22EE3
:1007000021E0D22E3EE3E32E31E0F32E8601C0E05D
:10071000D0E0B02EBC188B2D3DDD882359F1F801B7
:100720008081882371F0813029F5F70180819181E2
:100730006CE070E09BD06E5C7F4FFE01E85EFE4F88
:1007400017C0F7018081918161E170E08FD0CB010A
:100750000797009741F097FF03C06850710905C0E3
:100760006650710902C060E070E0FE01E05EFE4F7D
:1007700071836083AA2059F0F8018081882329F0D1
:10078000813029F48B2DC1DD02C08B2D7EDD9920B7
:1007900011F08B2D8DDE8B2D43DE8B2D2EDF0F5F29
:1007A0001F4F2296F2E0EF0EF11CC430D10509F084
:1007B000B0CFCDB7DEB7EBE08FC01092250110921D
:1007C0002401109227011092260110922B01109201
:1007D0002A011092350110923401109238011092C2
:1007E0002D0110922C0110923701109236011092B7
:1007F00039015BCFC0DCAA24A39472CF84B714BEA6
:100800008091600088618093600010926000E7DE54
:100810002FDFFECFF89474C0F999FECF92BD81BD51
:10082000F89A992780B50895262FF999FECF1FBA17
:1008300092BD81BD20BD0FB6F894FA9AF99A0FBE09
:1008400001960895AA1BBB1B51E107C0AA1FBB1F3D
:10085000A617B70710F0A61BB70B881F991F5A954C
:10086000A9F780959095BC01CD01089597FB072EBF
:1008700016F4009406D077FD08D0E4DF07FC05D01D
:100880003EF4909581959F4F0895709561957F4FA7
:1008900008952F923F924F925F926F927F928F9224
:1008A0009F92AF92BF92CF92DF92EF92FF920F93FF
:1008B0001F93CF93DF93CDB7DEB7CA1BDB0B0FB609
:1008C000F894DEBF0FBECDBF09942A8839884888C6
:1008D0005F846E847D848C849B84AA84B984C8845C
:1008E000DF80EE80FD800C811B81AA81B981CE0F53
:1008F000D11D0FB6F894DEBF0FBECDBFED01089538
:04090000F894FFCF99
:0409040040010000AE
:00000001FF
