:1000000019C133C132C131C130C12FC12EC12DC17F
:100010002CC12BC12AC129C128C127C126C125C194
:1000200024C123C122C121C120C11FC11EC11DC1C4
:100030001CC11BC1000000000301060209030C04DF
:100040000F051206150718081B091E0A210B240CA0
:10005000270D2A0E2D0F3110341137123A133D148B
:1000600040154316461749184C194F1A521B551C78
:10007000581D5B1E5E1F6120642167226A236D2468
:1000800070257326762779287C297F2A822B852C58
:10009000882D8B2E8E2F9230953198329B339E3443
:1000A000A135A436A737AA38AD39B03AB33BB63C30
:1000B000B93DBC3EBF3FC240C541C842CB43CE4420
:1000C000D145D446D747DA48DD49E04AE34BE64C10
:1000D000E94DEC4EEF4FF350F651F952FC53FF54FB
:1000E0000256055708580B590E5A115B145C175DE0
:1000F0001A5E1D5F20602361266229632C642F65D0
:100100003266356738683B693E6A416B446C476DBF
:100110004A6E4D6F5170547157725A735D746075A9
:100120006376667769786C796F7A727B757C787D97
:100130007B7E7E7F8180848187828A838D84908587
:100140009386968799889C899F8AA28BA58CA88D77
:10015000AB8EAE8FB290B591B892BB93BE94C19561
:10016000C496C797CA98CD99D09AD39BD69CD99D4F
:10017000DC9EDF9FE2A0E5A1E8A2EBA3EEA4F1A53F
:10018000F4A6F7A7FAA8FDA900AB03AC06AD09AE2B
:100190000CAF10B013B116B219B31CB41FB522B610
:1001A00025B728B82BB92EBA31BB34BC37BD3ABEFF
:1001B0003DBF40C043C146C249C34CC44FC552C6EF
:1001C00055C758C85BC95ECA61CB64CC67CD6ACEDF
:1001D0006DCF71D074D177D27AD37DD480D583D6C8
:1001E00086D789D88CD98FDA92DB95DC98DD9BDEB7
:1001F0009EDFA1E0A4E1A7E2AAE3ADE4B0E5B3E6A7
:10020000B6E7B9E8BCE9BFEAC2EBC5ECC8EDCBEE96
:10021000CEEFD2F0D5F1D8F2DBF3DEF4E1F5E4F67F
:10022000E7F7EAF8EDF9F0FAF3FBF6FCF9FDFCFE6E
:10023000FFFFFFFF11241FBECFEFD4E0DEBFCDBF15
:1002400011E0A0E0B1E0E0E7F6E002C005900D9219
:10025000A230B107D9F721E0A2E0B1E001C01D92C0
:10026000A132B207E1F79FD0E9C1CACE811106C021
:1002700089B18295817091E08927089589B180952F
:10028000881F8827881F0895811107C086B183FBC6
:10029000882780F991E08927089586B182FB882715
:1002A00080F9F8CF811108C0662319F058985B9A3D
:1002B0000895589A5B980895662319F05D985E9AA0
:1002C00008955D9A5E980895811103C058985B98CF
:1002D00008955D985E98089560911A0180911801C3
:1002E0008111626080911B0181116460809119010C
:1002F00081116860609590E080E0AAD108955998D6
:100300000895299808955A98089528980895249A48
:100310002C98549857985C9A5F9A3B983A98439ACD
:10032000429A509A539A519A529A559A569A219AA9
:10033000209AE5DFE6DFE7DFE8DFEAE7F0E080814B
:100340008760808380818068808380E6809300015D
:1003500080937C0080818064808390E080E070D115
:100360008095AAE1B1E0982F91709C93E8E1F1E0CB
:1003700081FB992790F9908382FB992790F9119638
:100380009C9383FB882780F98183EAE0F1E0118266
:100390001082E2E1F1E0118210821092800085E08B
:1003A00080938100089584B714BE809160008861B5
:1003B0008093600010926000AADF109217011092E3
:1003C000160181E090E0A0E0B0E0809302019093FC
:1003D0000301A0930401B093050180917A0086FD8A
:1003E00022C080912001E0917900F0E0EE0FFF1F24
:1003F000EC5CFF4F25913491E1E0E81BF0E0EE0F5B
:10040000FF1FE45EFE4F318320838F5F81708093F6
:10041000200190910001892B80937C0080917A00CB
:10042000806480937A00B2E1EB2EB1E0FB2ED0E045
:10043000C0E08C2F29DF182FF70181917F018111F6
:10044000DAC0112379F08091840090918500FE013B
:10045000EE0FFF1FE45FFE4F91838083FE01E05F9C
:10046000FE4F1082F70131971083219709F06FC07A
:100470008090020190900301A0900401B0900501CA
:1004800056E0E52E51E0F52E66E1C62E61E0D62E4F
:10049000D0E0C0E07C2E8C2FE9DE082F811107C050
:1004A000FE01E85EFE4F8081882309F462C08FEF71
:1004B00091E0F70191838083002309F45AC0F6018B
:1004C0001081111124C0FE01EE0FFF1FE45EFE4FEC
:1004D000808191818816990620F011E0019609F437
:1004E00010E0FE01E65EFE4F8081FE01EC5EFE4FF5
:1004F000882311F0808118271083612F872DD2DE89
:1005000082E0111181E0FE01E65FFE4F8083F6017B
:1005100001936F014501AA24BB24F70180819181D9
:10052000009749F0019791838083892B21F4FE0184
:10053000E65FFE4F1082F2E0EF0EF11C2197B1F45E
:1005400080910A01811122C0DADEDDDE23C0C1E024
:10055000D0E06FCF8034910508F484CF111182CFA1
:10056000FE01E65EFE4F808191E063C0C1E0D0E015
:1005700091CFF6018081882351F2FE01E85EFE4FA3
:1005800080818111C4CF872D9FDEC1CF813049F496
:10059000B6DE5A9A80910B01811105C0B2DEB5DE3C
:1005A00006C0599AD2CF813021F5ABDE289A40910E
:1005B0000201509103016091040170910501DB017A
:1005C000CA0181709927AA27BB27B095A09590955D
:1005D00081959F4FAF4FBF4F81709927AA27B07D5C
:1005E000769567955795479584279527A627B7272A
:1005F000ECCE299AD4CFDE01A05FBE4F8C91811141
:1006000031CF8091840090918500FE01EE0FFF1F95
:10061000E45FFE4F20813181821B930B8A36F8E123
:100620009F0708F497CF91E09C93FE01E85EFE4F90
:100630008081892780838C2F4FDE14CFF89416C0D9
:10064000F999FECF92BD81BDF89A992780B508959A
:10065000262FF999FECF1FBA92BD81BD20BD0FB6DE
:10066000F894FA9AF99A0FBE01960895F894FFCF7C
:02067000400048
:00000001FF
